:100000000C94C9010C9410020C9410020C94B719B2
:100010000C9410020C9410020C9410020C94100218
:100020000C9410020C9410020C94D2200C94A42175
:100030000C94691C0C9410020C9410020C94100285
:100040000C9410020C9410020C9410020C941002E8
:100050000C9410020C94DE1C0C9410020C941002F0
:100060000C9410020C9410020C9410020C941002C8
:100070000C9410020C9410020C9410020C941002B8
:100080000C9410020C9410020C9410020C941002A8
:100090000C9410020C9410020C9410020C94100298
:1000A0000C9410020C9410020C941002F303F3034E
:1000B000250425047B057B057B057B0572040B0568
:1000C0001C051C050F060F06210621061806210631
:1000D000210621060F060F061D06210621061D0614
:1000E000112238223023382230238422A7223023C1
:1000F000FE220D2329001E001F00200021002200E7
:100100002B0014001A00080015001700E00004007E
:100110001600070009000A00E1001D001B00060090
:10012000190005000000E200E30001512C002F003F
:100130003500270026002500240023002D00130091
:1001400012000C0018001C00340033000F000E00D9
:100150000D000B00E50038003700360010001100DC
:100160000000E7002A0002512800300001000100D1
:1001700001000100010001003A003B003C003D008D
:100180003E003F0035001E021F0220022102220213
:10019000A800AC00AB00AE00AA00A900000001005E
:1001A0000100010001000100010001000100010047
:1001B00001000100450044004300420041004000AE
:1001C00035022702260225022402230231023002D0
:1001D0002F022E022D020000000001000100035139
:1001E0000100010001000100010001000100010007
:1001F00035001E001F002000210022003A003B00B5
:100200003C003D003E003F004000410042004300F2
:1002100044004500000001000100035101000100FD
:1002200001000100010001000100010001002700A0
:10023000260025002400230000004F00520051003A
:1002400050000000310030002F002E002D002E0243
:100250000000010001000100010001000000000099
:10026000000000000000000000000000000000008E
:10027000000000000000000000000000000000007E
:10028000000000000000000000000000000001006D
:10029000010001000100000000000000000000005B
:1002A000000000000000000000000000000000004E
:1002B000000000000000000000000000000000003E
:1002C000000000000000000000000100010001002B
:1002D0000100000000AE00AF00DA0281FFD9F1DBBF
:1002E00020A4A62EAF00A0C000A1C800AED580A853
:1002F0001FD300408D1420000E034C0069006C00D9
:10030000790035003800000010036C0069006C00B3
:10031000690075006D007300000004030904090200
:100320002200010100A0FA090400000103010100FC
:100330000921110100012240000705810308000A7C
:100340001201000200000008D8042DEB0001010298
:10035000000105010906A101050719E029E71500BB
:100360002501950875018102950175088101050730
:10037000190029FF150026FF009506750881000564
:1003800008190129059505750191029501750391DB
:1003900001C011241FBECFEFDAE0DEBFCDBF04B62F
:1003A00003FE27C080916F0490917004A0917104A6
:1003B000B09172048730904BA740B04BD1F41092AB
:1003C0006F0410927004109271041092720414BEA3
:1003D00084B7877F84BF0FB6F894A895809160009A
:1003E000886180936000109260000FBEE0E0F8E347
:1003F000099511E0A0E0B1E0E4EDF7E402C005905A
:100400000D92AE34B107D9F724E0AEE4B1E001C0FB
:100410001D92AF36B207E1F70E94A1130C94E823B6
:100420000C94000081E0089581E008950C9414027A
:1004300008950C9418021F93CF93DF9300D000D03F
:100440001F92CDB7DEB749835A836B833091500139
:1004500089819A81311114C0662359F0222349F011
:100460000E94B507182F682F89819A810E945C0726
:1004700003C00E948807182F69817A81812F04C0E8
:100480000E94B50769817A810F900F900F900F90AD
:100490000F90DF91CF911F910C94980EFC01262FA5
:1004A000408151816281738184810C941B0281E0BF
:1004B0000895CF93DF93EC0160E00E944E02BE01ED
:1004C000DF91CF910C9419020E948A0F0E94D502ED
:1004D0000C94C40F0C94C00F08950E94FD050E9457
:1004E0006C022FEF84E39CE0215080409040E1F7C4
:1004F00000C000000C94041D0F931F93CF93DF9353
:100500008C0161E00E944E02EC01B8010E941602CB
:100510008823F1F1B801CE010E9450168823C1F161
:10052000B801CE010E94A216882391F1B801CE0134
:100530000E94D417882361F1F8018281882309F190
:10054000CB358DE5D807C1F050F4C115FCE5DF07C8
:1005500081F0CF3DDC45A9F40E94C00C19C0CC3518
:10056000EDE5DE0761F0CD35DD4559F40E94570B0E
:1005700008C00E946D020CC00E94600B02C00E9465
:10058000630BC801DF91CF911F910F910C94120260
:1005900080E0DF91CF911F910F91089508950C9401
:1005A000CE0281E008950C94D1020895CF93C82F14
:1005B0000E94CF028C2F0E94D302CF910895CF9337
:1005C000DF93CDB7DEB72B970FB6F894DEBF0FBE23
:1005D000CDBF4F83588769877A878B8761110E94C7
:1005E000860B9E012F5F3F4F86E0F90111928A959D
:1005F000E9F785E0FE013796D90101900D928A95C1
:10060000E1F789819A814C815D81452B31F09F3FD3
:1006100031F491E08F3F19F403C091E001C090E004
:1006200090FF09C049815A816B817C818D819E81B7
:100630000E94860A05C0C9010E9457028111F2CFAB
:100640002B960FB6F894DEBF0FBECDBFDF91CF91D2
:100650000895FC01808191810E94F7070895CF934E
:10066000882371F1C82F8CEF8C0F813AD0F46C2F56
:1006700080910001909101010E94911B882349F013
:100680006C2F80910001909101010E94C91B0E9472
:10069000AB0B6C2F80910001909101010E94C71B50
:1006A0000CC080E28C0F883058F4C77081E001C024
:1006B000880FCA95EAF70E94690BCF910C94AB0B97
:1006C000CF910895882349F1682F8CEF860F813AE6
:1006D00038F480910001909101010E94C91B0CC067
:1006E00080E2860F883050F4677081E001C0880F87
:1006F0006A95EAF70E946F0B0C94AB0B8BE5860FA3
:10070000833020F480E090E00C94591B685A6731E4
:1007100020F480E090E00C946F1B08951F93CF931A
:10072000DF93182FEB010E942F03209741F08FE9F0
:100730009FE00197F1F700C000002197F6CF812FCD
:10074000DF91CF911F910C946203893319F060E01F
:1007500070E002C060E570E00C948E03882321F005
:100760000E94690B0C94AB0B0895882321F00E9422
:100770006F0B0C94AB0B0895CF92DF92EF92FF9228
:100780000F931F93CF93DF937C01D62FC72FFC01CC
:100790000281158112951F700E943E0B882399F0EB
:1007A000002389F08C2F807F803421F080E28D0F30
:1007B000883048F082E00E94FB0B0E943E0B91E0E3
:1007C000D82ED92601C0D12CCC2EC2948FE0C822BD
:1007D0008C2D90E08C30910508F08DC1FC01EA5A17
:1007E000FF4F0C948A238C2F807FCF70882311F0C9
:1007F000C295C07F002399F0CC2309F468C180E240
:100800008D0F883010F0D11104C08C2F0E94690B1D
:1008100003C08C2F0E94790B0E94AB0B58C18D2F07
:100820000E946203CC2309F466C180E28D0F8830F8
:1008300010F0D11104C08C2F0E946F0B03C08C2FBD
:100840000E947F0B0E94AB0B56C18C2F807FCF7014
:10085000803211F0C295C07FDD2319F0D130C9F08C
:1008600022C0002371F0112341F0113031F40E94B5
:100870008C0B8C2B0E94940B3EC10E948C0B8C2BFA
:100880001DC0112319F0113009F435C10E94A10BCC
:1008900025C0002321F0163008F02DC10EC0153000
:1008A00008F029C11BC0002361F0112331F0F701CA
:1008B000858180FF0CC18F7085838C2F0E94AE03D1
:1008C0001AC1112359F0D93309F012C1FFEF07EE15
:1008D00013E0F15000401040E1F708C18C2F0E9456
:1008E000B50309C18C2F837009F047C0011107C1FE
:1008F0002D2F229526952770220F220F6D2F6F70B6
:10090000862F90E0A0E0B0E0022E04C0880F991F6F
:10091000AA1FBB1F0A94D2F7D4FF10C04FE050E0CB
:1009200060E070E004C0440F551F661F771F2A95D2
:10093000D2F7409550956095709503C040E050E027
:10094000BA01C695C695C3708A019B01082B192B65
:100950002A2B3B2BC901B801C23049F058F4C130F1
:1009600019F00E947206CBC00E946006C8C00E94A7
:100970008406C5C00E945E06C2C0002319F08C2FF9
:10098000817001C08695882309F4B9C02D2F229566
:1009900026952770220F220F6D2F6F70862F90E003
:1009A000A0E0B0E0022E04C0880F991FAA1FBB1F51
:1009B0000A94D2F7D4FF10C04FE050E060E070E03E
:1009C00004C0440F551F661F771F2A95D2F7409524
:1009D00050956095709503C040E050E0BA01C6950F
:1009E000C695C3708A019B01082B192B2A2B3B2B20
:1009F000C901B801C23049F058F4C13019F00E9461
:100A000037077DC00E9425077AC00E94490777C03A
:100A10000E94980674C0CF70002339F08C2F0E947A
:100A2000BE068D2F0E94AE036AC08D2F0E94B503B3
:100A30008C2F0E94DF0663C0D23F01F128F4D03F23
:100A400041F0D13FA1F03FC0D33FF9F0D43F39F19D
:100A50003AC0002341F0153008F04DC08C2F8F7143
:100A60000E94040748C0163008F045C0F7CF0023A5
:100A700039F08C2F8F710E94BE063DC00023C9F350
:100A80008C2F8F710E94DF0636C0002329F08C2F37
:100A90008F710E94A9062FC00E94A4062CC00023BB
:100AA00049F0CF718C2F0E94BE0663E08C2F0E940C
:100AB000E00B21C081E00E94FB0B1230E0F082E0ED
:100AC0000E94FB0B18C0002331F0112391F28D2FEF
:100AD0000E942F0310C0112399F2D93349F41FEF5C
:100AE00027EE33E0115020403040E1F700C0000015
:100AF0008D2F0E94620388EF8C0D843020F40E94B9
:100B00003B1B0E94D602DD20C9F00E943A0B80FDFB
:100B100015C0F70112820E94340B0E94BE06C70165
:100B20000E94BF050E94340BDF91CF911F910F915E
:100B3000FF90EF90DF90CF900C94DF06DF91CF9184
:100B40001F910F91FF90EF90DF90CF9008950F933A
:100B50001F93CF93DF93EC01688179818A810E9492
:100B600002088C010E945B070E944C06B801CE016E
:100B70000E94BC03DF91CF911F910F910895CF93F5
:100B8000DF93EC01988189812B813C81232B31F00B
:100B90008F3F31F481E09F3F19F403C081E001C031
:100BA00080E080FD19C0CE010E947C0281110CC042
:100BB0000E943E0B882381F08A81882369F082E0BD
:100BC000DF91CF910C94FB0BCE010E94A705CE01C3
:100BD000DF91CF910C945902DF91CF9108950E943B
:100BE000860B0E94890B0C94AB0B809100019091B5
:100BF00001010E94CB1B0C94EF050E94760B0C9414
:100C0000F505E92FE295EF704E2F50E0FA0132978B
:100C1000EE30F105B0F4EE59FF4F0C948A23803F7B
:100C200091F018F4883E68F40EC0843F51F40BC074
:100C3000883E48F0813F29F406C093FB882780F95D
:100C4000089580E0089581E00895FC0180819181FC
:100C50000E94F7070E9401060895CF93DF9300D00A
:100C600000D01F92CDB7DEB70F900F900F900F906E
:100C70000F90DF91CF910895CF93DF9300D000D0F4
:100C800000D0CDB7DEB726960FB6F894DEBF0FBE04
:100C9000CDBFDF91CF910895089508950C944D062E
:100CA0000C944E060E94500660937D0170937E0165
:100CB00080937F01909380010C94EF050C94520671
:100CC0000F931F9300917D0110917E0120917F0170
:100CD00030918001602B712B822B932B1F910F91F0
:100CE0000C9452060F931F9300917D0110917E0189
:100CF00020917F013091800160237123822393230F
:100D00001F910F910C9452060F931F9300917D0138
:100D100010917E0120917F01309180016027712721
:100D2000822793271F910F910C9452060C944D0625
:100D30000E9496066093790170937A0180937B01FB
:100D400090937C010C94EF0560E070E0CB010C9473
:100D500098060F931F9341E050E060E070E08A0135
:100D60009B0104C0000F111F221F331F8A95D2F769
:100D7000C901B8011F910F910C9498060F931F930E
:100D800041E050E060E070E004C0440F551F661F72
:100D9000771F8A95D2F78091790190917A01A0917D
:100DA0007B01B0917C018A019B01082B192B2A2B16
:100DB0003B2BC901B8011F910F910C9498060F931A
:100DC0001F9341E050E060E070E004C0440F551F05
:100DD000661F771F8A95D2F740955095609570955C
:100DE0008091790190917A01A0917B01B0917C0171
:100DF0008A019B01082319232A233B23C901B80137
:100E00001F910F910C9498060F931F9341E050E0AF
:100E100060E070E004C0440F551F661F771F8A957D
:100E2000D2F78091790190917A01A0917B01B091E4
:100E30007C018A019B01082719272A273B27C90122
:100E4000B8011F910F910C9498060F931F93009176
:100E5000790110917A0120917B0130917C01602B06
:100E6000712B822B932B1F910F910C9498060F934B
:100E70001F930091790110917A0120917B013091AB
:100E80007C0160237123822393231F910F910C9483
:100E900098060F931F930091790110917A01209188
:100EA0007B0130917C0160277127822793271F9156
:100EB0000F910C9498060895292F220F920F990FE5
:100EC000890FE82FE695E695E695877051E001C019
:100ED000550F8A95EAF785E0E89FF0011124EF5A53
:100EE000FE4F20E030E070E04081CB01022E02C0D6
:100EF000969587950A94E2F78170819584278523DA
:100F0000842781932F5F3F4F2530310569F708957E
:100F1000292F220F920F990F890F682F66956695DA
:100F20006695982F977085E0689FB001112440E086
:100F300050E080E0FB01E40FF51FEF5AFE4F2081E7
:100F400030E0092E02C0369527950A94E2F7217009
:100F50003327042E01C0220F0A94EAF7822B4F5F39
:100F60005F4F4530510531F70895BF92CF92DF9220
:100F7000EF92FF920F931F93CF93DF938C01C0905A
:100F80007901D0907A01E0907B01F0907C01809112
:100F90007D0190917E01A0917F01B0918001C82ACE
:100FA000D92AEA2AFB2ACFE1D0E0D701C6010C2ECC
:100FB00004C0B695A795979587950A94D2F780FDBA
:100FC00004C0219790F7B12C07C0BC2EB8018C2F1C
:100FD0000E94AB0E0197A9F38B2DDF91CF911F914A
:100FE0000F91FF90EF90DF90CF90BF900895CF9337
:100FF000DF93EC010E94B507BE010E94AB0EDF91AA
:10100000CF9108951F93CF93DF93EB0190915001FF
:10101000992321F0CB010E94F70713C0882349F0E0
:10102000CB010E94B507182F682FCE010E945C07E4
:1010300004C0CB010E948807182FBE01812F0E9497
:10104000AB0EDF91CF911F9108951F93CF93DF9344
:10105000C091810116E080918201C81799F0D0E01B
:101060001C9FF0011D9FF00D1124ED57FE4F408194
:10107000518162817381848195810E943C06219611
:10108000C770E9CFDF91CF911F9108954091B301CF
:101090005091B4016091B5017091B6018091B70192
:1010A0009091B8010C943C060F931F93CF93DF935C
:1010B0008091B80182958F7009F05DC08091B50173
:1010C000882309F458C080918101109182016091B8
:1010D000B3017091B401C091B601D091B70191E014
:1010E0006F3F09F090E0292F06E0811709F443C013
:1010F000209721F07F3F21F030E003C031E001C0B4
:10110000322F90E030FD34C0089FF001099FF00DB0
:101110001124DF01AD57BE4F11963C911197371343
:1011200027C03C91361324C012963C91129731117E
:101130001FC013964D915C9114974C1B5D0B483C5E
:101140005105B0F48091B8018F7080618093B8012F
:10115000E857FE4F80818F708061808383EB91E040
:101160000E94BF05DF91CF911F910F910C9425082C
:1011700001968770BACFDF91CF911F910F9108959B
:101180009F92AF92BF92CF92DF92EF92FF920F9316
:101190001F93CF93DF93CDB7DEB761970FB6F89467
:1011A000DEBF0FBECDBF8C0185E0F801DE011D96CC
:1011B00001900D928A95E1F7F801E2809091B301D8
:1011C0006091B4012091B6013091B701211531052C
:1011D00031F06F3F31F481E09F3F19F403C081E0AB
:1011E00001C080E0F82FF1709F2E80FD3FC1F80113
:1011F00040815181A380B48083EBC82E81E0D82E3A
:10120000F090B501F501E21BF30BFF2009F4D9C002
:101210008091B801E83CF10508F095C0282F207FA7
:1012200009F052C0561313C0491311C0FE2CE1102F
:101230000EC08F7080618093B8010E944608C6017D
:101240000E94BF058091B801F80185834CC1AB288D
:1012500031F05F3F31F481E04F3F19F403C081E08A
:1012600001C080E080FD03C081E08E2502C080E0E7
:1012700090E0F82FF170FF2E80FF1CC0809181015B
:101280002091820136E0821709F40BC190E0389F6B
:10129000F001399FF00D1124ED57FE4F6181561377
:1012A00006C06081461303C06281E61203C0019646
:1012B0008770E9CFFE2CEE2009F415C18091B801AA
:1012C00081608093B80154C0561306C0491304C00E
:1012D000E11002C0F80199C0C8010E9425068823C8
:1012E00061F1EE2051F12091B801822F82958F702B
:1012F00090E0029774F08091B3019091B4019887C7
:101300008F831986BB86AA862C87CE0107960E94FA
:10131000BF0586E0F801A3EBB1E001900D928A953C
:10132000E1F70E9454080E9446080AC0561711F1BE
:10133000C8010E94250681112CC0C8010E94BF056A
:10134000FF24F394D0C0282F207F81F77A2DB98A0B
:10135000A88A6E2D89890E942D0683EB91E00E9458
:10136000BF0586E0F60111928A95E9F70E944608CA
:10137000F12CB9C04913DCCFE110DACFF801858335
:10138000C8010E94BF0586E0F60111928A95E9F72F
:10139000AAC0EE2091F22091B801822F82958F7021
:1013A00090E002970CF4B5CF8091B3019091B40115
:1013B0009A8389831B82BD82AC822E83CE010196E3
:1013C000A6CFE83CF10508F044C0FE2CEE2009F45D
:1013D000B4CF561330C049132EC02091B80120FD60
:1013E00021C0822F82958F70482F50E04115510502
:1013F000C9F0F80125834F30510541F08F5F982FD8
:101400009295907F822F8F70892B8583C8010E94CF
:10141000BF0586E0F801A3EBB1E001900D928A953B
:10142000E1F73CC086E0F801A3EBB1E001900D923A
:101430008A95E1F758C0C8010E942506811169CF3D
:101440008091B80181608093B801C8010E94BF05F6
:101450004AC07A2DB98AA88A6E2D89890E942D06E4
:1014600086E0F60111928A95E9F718C0EE2009F49A
:1014700064CFC8010E942506F82E882309F45DCFA9
:1014800086E0F801A3EBB1E001900D928A95E1F7B7
:1014900083EB91E00E9429030E9454080E944608B1
:1014A00022C04D875E878D859E850E94F707292F74
:1014B00022952F70223028F49F7039F0811105C0D9
:1014C0000BC0243028F49F7049F4805E883020F0EF
:1014D000C8010E94BF059F2CF92C05C0F801958119
:1014E000907F99F7F9CF8F2D61960FB6F894DEBFF4
:1014F0000FBECDBFDF91CF911F910F91FF90EF9065
:10150000DF90CF90BF90AF909F9008951F93CF939F
:10151000DF93CDB7DEB72C970FB6F894DEBF0FBEC2
:10152000CDBF4F83588769877A878B879C87CE0189
:1015300007960E94C0088823D1F09F8188852A855C
:101540003B85232B31F08F3F31F481E09F3F19F42D
:1015500003C081E001C080E080FD47C04F81588515
:1015600069857A858B859C850E943C063EC086E015
:10157000FE013796DE01119601900D928A95E1F7F2
:10158000FF81E8856A857B856115710531F0EF3F44
:1015900031F481E0FF3F19F403C081E001C080E035
:1015A00080FD23C02091820130E0C901019687703F
:1015B00099274091810150E084179507F1F1F98353
:1015C000EA837D836C8396E0929FD001939FB00D58
:1015D0001124AD57BE4FFE01319601900D929A95A0
:1015E000E1F7809382010E94250816E08091810135
:1015F00090918201891771F1189FC00111248D57B4
:101600009E4F0E94C008882329F1E09181011E9F0E
:10161000F0011124ED57FE4F4081518162817381A9
:10162000848195810E943C068091810190E0019621
:101630008770992780938101D9CF0E94FD05109270
:10164000820110928101E3EBF1E086E0DF011D925F
:101650008A95E9F72C960FB6F894DEBF0FBECDBF82
:10166000DF91CF911F9108958091B901859585955E
:10167000859508958091B901877008959091B90179
:10168000977081E009F480E0089590913A0292FB0E
:10169000222720F9281751F080FB92F990933A0203
:1016A0008091390290913A020C943C0C08958091FB
:1016B0003A0282FB882780F991E089270C94450B38
:1016C00081E00C94450B80E00C94450B8091C501A2
:1016D00008959091C501892B8093C5010895809547
:1016E0009091C50189238093C50108951092C50189
:1016F00008959091C401892B8093C4010895809529
:101700009091C40189238093C40108951092C4016B
:1017100008951092C30108958091BA010895089523
:101720000C948F0B0C94900B90913A0292FD08C090
:101730009091BA01981721F08093BA010C94920B02
:1017400008958091BA01882329F01092BA0180E0AF
:101750000C94920B0895E0910001F09101018091A9
:10176000C5018083E0910001F09101019081809199
:10177000C401892B8083E0910001F09101019081E7
:101780008091C301892B80838091BA01882381F0E5
:10179000E0910001F09101019081892B808380917B
:1017A0000001909101010E94851B81110E94A10BF3
:1017B00080910001909101010C944E1B0C948F0BB1
:1017C00090913A0292FD10C098E0899F90011124F7
:1017D000262B2093B9010E94BE068091B901859500
:1017E000859585950C94DE0B0C94BE061092B9017C
:1017F00080E00C94DE0B2091B901809582238093C8
:10180000B901982F977041F430E0482F082E000C52
:10181000550B2417350721F490913A0292FF07C027
:101820008595859585950E94DF060C94F60B0895A5
:1018300080E090E00E94AE2321E0893E9E4F09F0B7
:1018400020E0822F089582E090E00C94A62383E0AC
:1018500090E00C94A623CF9384E090E00E94A6230E
:10186000C82F82E290E00E94A6232C2F30E0A9012D
:10187000582BCA01CF910895CF93C92F682F84E0C8
:1018800090E00E94B4236C2F82E290E0CF910C9400
:10189000B423AB01BC018FE090E00C94C623AB01F4
:1018A000BC0183E190E00C94C62360E070E0CB01C2
:1018B0000C944F0C60E070E0CB010E94490C0C943A
:1018C000550C69EE7EEF80E090E00E94D22360E04C
:1018D00082E090E00E94B42360E083E090E00E9408
:1018E000B42310927D0110927E0110927F0110921C
:1018F000800160E084E090E00E94B42360E082E236
:1019000090E00E94B42360E085E090E00E94B42360
:1019100060E086E090E00E94B4236FEF87E090E003
:101920000E94B42340E050E0BA0188E090E00E94B9
:10193000C62360E08DE090E00E94B42340E050E0D8
:10194000BA0188E190E00E94C62360E087E190E060
:101950000E94B42340E050E0BA018CE190E00E9484
:10196000C62360E070E080E290E00E94D22340E075
:1019700050E0BA0188E190E00E94C6230C945A0C12
:101980000C94610C682F8EE090E00C94B4230E94BC
:10199000A71C6093D5017093D6018093D7019093D3
:1019A000D8016093D1017093D2018093D3019093B9
:1019B000D401089585B7806885BF85B7806885BFE5
:1019C00008950C946F1108950C94E30C0C94E30C9F
:1019D0000C94E60C0C94E30C0C94EA0C0C94E30CC1
:1019E0000E94DA0C87E89FE00E94151D0E94EE0C11
:1019F0000C94EC0C0E94E40C0C94E30C0E94921CDE
:101A00000E94D21B0E946A100E94AC1380E00E94C8
:101A100003140C94E80C8F929F92AF92BF92CF92D6
:101A2000DF92EF92FF920F931F93CF93DF93CDB787
:101A3000DEB72A970FB6F894DEBF0FBECDBF0E9467
:101A4000E410982E81110E94C70C87ECA82E81E02B
:101A5000B82E00E010E0802E802F0E94AE0FD82E0E
:101A6000F501C1905F01C826B1F40F5F1F4F0A3026
:101A7000110589F78FEF89838A831B820E949B1C43
:101A80008160782F9D838C8349815A816B818D8100
:101A90000E94DF022FC08091D90181FD0E94B40F06
:101AA000E12CFF24F3948C2D8F21F1F00E94E10CA6
:101AB000882399F0EE828F82DF2081E009F480E0B4
:101AC00088870E949B1C8160782F9A8789874E8126
:101AD0005F8168858A850E94DF02F801E953FE4F25
:101AE0008081F826F08206C0E394FF0CF6E0EF1246
:101AF000DACFBBCF0E94A11591100E9462140E9400
:101B00003B1B9091C6018917C1F00E943B1B80933B
:101B1000C6012A960FB6F894DEBF0FBECDBFDF9187
:101B2000CF911F910F91FF90EF90DF90CF90BF90DA
:101B3000AF909F908F900C94D6022A960FB6F8948F
:101B4000DEBF0FBECDBFDF91CF911F910F91FF90F0
:101B5000EF90DF90CF90BF90AF909F908F900895BF
:101B6000CF93DF930E94B00EEC01811523E592071D
:101B7000A0F5811532E5930708F09EC0811540E27B
:101B80009407C0F4811551E0950708F0CDC0853A5F
:101B9000910550F48430910508F0C6C0019709F012
:101BA000C0C081E090E0C1C0805E9109089708F450
:101BB000BBC0B7C0C11581E5D80708F077C0C11513
:101BC00020E5D20708F051C0C11530E4D30708F46E
:101BD000A8C0DF70CE01906AA8C0811546E59407C1
:101BE00000F5811555E5950708F081C0C11584E51C
:101BF000D80708F076C0CE018370992721E030E045
:101C000002C0220F331F8A95E2F79C2F9695969576
:101C100040E2949FE0011124C22BD32BCE019A689D
:101C200084C081152AE5920780F4811539E5930770
:101C300008F066C0811548E5940708F472C0D82FF3
:101C4000CC27CE01806F906A70C09056811590426B
:101C500008F067C08D2F8F710E94440FDD27D0627E
:101C60008F71AE01582BCA0160C0CE0174E0969509
:101C700087957A95E1F7282F23703C2F337081E008
:101C800090E002C0880F991F3A95E2F79C68AC017A
:101C9000522B9A019C2F9F709695969550E2959F96
:101CA000E0011124C9018C2B9D2B3FC0DC2FCC27D8
:101CB000CE01816F906A39C08370992721E030E0AE
:101CC00002C0220F331F8A95E2F79C2F96959695B6
:101CD00080E2989FE0011124C22BD32BCE019C6897
:101CE00024C0DC2FCC27CE01846F906A1EC00E94D6
:101CF000440F8F7190E0D82FCC27CE01906215C091
:101D00008F700E94440F94E0D695C7959A95E1F79D
:101D1000CF70D0E0DC2FCC27D0699E01282BC901E1
:101D200004C080E090E001C0CE01DF91CF91089522
:101D30002CE3829FC0011124FC0126E0729FE00D7C
:101D4000F11D1124E60FF11DEE0FFF1FEC50FF4FA8
:101D50008591949108950E94980E0E94B00D089567
:101D60008238910569F1B0F48133910509F46DC0B1
:101D700048F48932910509F463C08A32910509F467
:101D800069C008958533910509F455C089339105DB
:101D9000B9F00895833E910569F138F4803E9105CC
:101DA000B1F0823E910509F10895863E9105A9F1B1
:101DB000873E9105B9F1843E910509F064C023C0C6
:101DC0002091390220FD4FC021FD4DC00895809122
:101DD000390280FD44C080913A0280FF44C0809166
:101DE000390284FD42C083EE4DC08091390282FFEA
:101DF00038C0F5CF8091390282FD33C080913A021C
:101E000080FD31C0ECCF80913A0281FF32C08091D9
:101E1000390284FD2AC087EE35C08091390283FFE4
:101E200026C0F5CF8091390283FD21C080913A020E
:101E300081FD1FC0ECCF8091390285FD1CC01DC003
:101E40008091390285FD19C016C08091390286FD46
:101E500016C017C08091390286FD13C010C089E3F7
:101E600011C082EE0FC080EE0DC080E00BC086EE88
:101E700009C084EE07C089E205C085E303C08AE299
:101E800001C081E390E008959091390292FF0DC066
:101E9000282F2871283019F4877F846006C0282FE6
:101EA0002471243011F48B7F886093FF0DC0282F9C
:101EB0002871283119F4877E846106C0282F247187
:101EC000243111F48B7E886120913A0220FF0DC0ED
:101ED000382F3871383019F4877F816006C0382F69
:101EE0003171313011F48E7F886021FF0DC0282FB1
:101EF0002871283119F4877E816106C0282F21714D
:101F0000213111F48E7E886194FD877E089580E0F2
:101F1000089508950E94180C811102C00E94C00CFF
:101F20000E94230C8093D9010E942B0C90933A02BB
:101F3000809339020E94890F0E94270C682F70E05D
:101F400080E090E00E945E066091790170917A01D4
:101F500080917B0190917C010C949606E82FF0E033
:101F6000EB5BFD4F80810895089580EA8A95F1F733
:101F7000089500C008950C94B50F08950C94BD0FFA
:101F80000C94BE0F0C94BD0F0C94C20FF894E82F64
:101F9000E295EF70F0E031A1282F2F7081E090E002
:101FA00001C0880F2A95EAF7982F9095932391A363
:101FB00092A1892B82A37894089508950C94DD0F43
:101FC0000F931F93CF93DF93C9E3D1E089918F3FA4
:101FD00011F00E94C60F81E0CE33D807B9F7C3E3F2
:101FE000D1E009E311E089918F3F11F00E94C60F03
:101FF0000C171D07C1F7DF91CF911F910F91089525
:10200000CF92DF92EF92FF920F931F93CF93DF93C4
:102010008C01C62FD0E0CE01875C9E4F7C01FC0175
:1020200090819F3F09F44DC0D62EF894E92FE29598
:10203000EF70F0E081A19F7021E030E001C0220F3D
:102040009A95EAF7822B81A382A12095282322A3C7
:1020500078940E94B90FE3E3F1E020E030E0C12C76
:1020600051E041914F3FB1F0A42FA295AF70B0E085
:1020700090968C9190E04F7002C0959587954A9507
:10208000E2F780FD07C0852F022E01C0880F0A9459
:10209000EAF701C080E0C82A2F5F3F4F26303105A4
:1020A00001F7F70180818F3F11F00E94C60F61E0B8
:1020B000C11001C060E08D2D0E94BB0FC00FD11F69
:1020C000C882DF91CF911F910F91FF90EF90DF9029
:1020D000CF9008950E9489118091020180910201A0
:1020E000811102C095E001C090E09093500285E01C
:1020F000891B80934F020E94E00FEBE3F2E0A5E41E
:10210000B2E011921D9282E0E534F807D1F785E044
:102110000E9438110E9464020C9493110F931F9334
:10212000CF93DF9300D000D01F92CDB7DEB70E94CF
:102130006F1160915002882379F18E010F5F1F4F5C
:1021400085E0F80111928A95E9F7862F90E0B801B1
:102150008B5B9D4F0E94A111E0914F029E012A5F6F
:102160003F4FF0E0EB5BFD4FD801882361F010E0BA
:102170008D919081981711F0808311E03196A2170C
:10218000B307B1F706C011921D92A217B307D9F792
:1021900011E00E946A020DC070E06B5B7D4F809180
:1021A0004F0290E08B5B9D4F0E9431120E94DE0F28
:1021B00010E0812F0F900F900F900F900F90DF91F4
:1021C000CF911F910F910895EF92FF920F931F935C
:1021D000CF93DF93CDB7DEB72A970FB6F894DEBF63
:1021E0000FBECDBF8E010F5F1F4F8AE0F801119225
:1021F0008A95E9F7F12C6F2DC8010E940010F39425
:10220000F5E0FF12F8CF4AE050E0B8018BE392E02E
:102210000E9490237C0121E0892B09F420E0E11445
:10222000F10441F08AE0F801ABE3B2E001900D92D5
:102230008A95E1F76091500270E06B5B7D4F45E05D
:102240008BE392E00E943911EF2819F40E948E105E
:1022500002C081E090E02A960FB6F894DEBF0FBE70
:10226000CDBFDF91CF911F910F91FF90EF90089517
:102270000895FF920F931F93CF93DF938C01F62E57
:10228000D72FC42F222349F081E08093DC010E94E4
:102290009B1C9093DB018093DA018091DC01882301
:1022A000C1F08091DA019091DB010E94B31C059787
:1022B00080F0EF2DFD2FD8014C2F50E0CD01801B79
:1022C000910B841795071CF48D918193F7CF109291
:1022D000DC01DF91CF911F910F91FF9008958091C4
:1022E000DF0181110DC00E946923811102C082E0CB
:1022F00001C081E08093DF01823011F40E946423E9
:1023000081E09091DF01913009F080E008950C9414
:102310006F110E948711809302010E946F11811139
:102320000C94D91108950E946F11811102C00C9470
:10233000DB11089581E09091E0019A3008F080E08F
:1023400008950F931F93CF93DF93EC018B0180913E
:10235000E0018A3038F4B801CE010E942F128111B9
:102360001DC00AC08091DD019091DE010E94B31C66
:10237000843F914080F715C08091E0018F3F19F0B4
:102380008F5F8093E0018091E0018A3060F00E94CD
:102390009B1C9093DE018093DD0103C01092E0014D
:1023A00002C080E001C081E0DF91CF911F910F91C9
:1023B00008950C9471190C947419EF92FF920F9375
:1023C0001F93CF93DF937901C82F880FDD0B411541
:1023D0005105A9F08AE08C9FF0018D9FF00D11242A
:1023E000ED5FFE4F838194818F519E4F228130E0BB
:1023F0004217530708F49A01A9010E949D23CE01B8
:102400000E947E1A892B09F50115110501F18AE058
:102410008C9FF0018D9FF00D1124ED5FFE4F4581E3
:1024200050E00417150708F4A8018AE08C9FF0011A
:102430008D9FF00D1124ED5FFE4F668177816F5106
:102440007E4FC7010E949D2302C080E001C081E051
:10245000DF91CF911F910F91FF90EF9008950C9411
:102460004B130C9467130F931F93CF93DF9300D0FC
:1024700000D0CDB7DEB76091F8017091F90180917D
:10248000FA019091FB010E94C21C6436710581051E
:10249000910528F10E94F81BDC01CB010296A11DD9
:1024A000B11D89839A83AB83BC8300E010E020E0F8
:1024B00030E044E050E0BE016F5F7F4F82E00E9459
:1024C000DD11182F882361F00E94A71C6093F8018A
:1024D0007093F9018093FA019093FB0101C011E020
:1024E000812F0F900F900F900F90DF91CF911F9140
:1024F0000F910895AF92BF92CF92DF92EF92FF9229
:102500000F931F93CF93DF937C015B016A010E94BD
:102510009A11811103C001E010E002C00AE010E04E
:10252000C1E0D0E0F894B501C701F60109957894AF
:10253000811115C021960C171D0794F0CC9F9001B6
:10254000CD9F300D300D112480E090E045E34A9599
:10255000F1F70000019682179307C1F7E3CF81E0FE
:10256000DF91CF911F910F91FF90EF90DF90CF906F
:10257000BF90AF900895AF92BF92CF92DF92EF924B
:10258000FF920F931F93CF93DF9300D000D000D022
:10259000CDB7DEB77B01C0904301D090440101E08C
:1025A00010E09E012A5F3F4F40E050E060E070E0A5
:1025B00080E00E94DD11182F882309F43EC05601E7
:1025C0008FEFA81AB80A6091F4017091F50180911B
:1025D000F6019091F7010E94C21C643671058105D5
:1025E000910518F105E010E09E012F5F3F4F40E09C
:1025F00050E060E070E081E00E94DD11182F65E09E
:1026000070E0C5010E94AD1391E02E81281390E087
:10261000192339F10E94A71C6093F4017093F5010E
:102620008093F6019093F70111C065E070E0C50159
:102630000E94AD139E818913D5CF85E0F6013196B6
:10264000DE01119601900D928A95E1F7112349F070
:1026500085E0FE013196AFEEB1E001900D928A95D2
:10266000E1F785E0EFEEF1E0D70101900D928A9558
:10267000E1F7812F26960FB6F894DEBF0FBECDBFCF
:10268000DF91CF911F910F91FF90EF90DF90CF904E
:10269000BF90AF9008950F931F93CF93DF93EC01FA
:1026A0008B014BEB52E10E947A12882351F043E3F5
:1026B00052E1B801CE01DF91CF911F910F910C949F
:1026C0007A1280E0DF91CF911F910F9108950F93BF
:1026D0001F93CF93DF93F894C0914301D0914401AD
:1026E000CE01019625E0FB01DC0101900D922A95B7
:1026F000E1F765E070E00E94AD1388837894F89468
:102700006E817F81888599850091EB011091EC01A4
:102710002091ED013091EE01601771078207930758
:1027200051F06093EB017093EC018093ED01909375
:10273000EE010E94DB1B7894DF91CF911F910F91E6
:1027400008950E94131C0E94221E0E943B1E0E949C
:102750004D1E0E94FA0CFBCF0895FC01680F791FF3
:102760008FEF91E3E617F70771F02191822728E0B8
:1027700030E087FF03C0880F892701C0880F2150F0
:102780003109B9F7EFCF0895EF92FF920F931F939E
:10279000CF93DF93EC017B0164E670E088E70E9451
:1027A0000B188C01EC0EFD1ECE15DF0561F017FD38
:1027B0000AC0FE01849164E670E00E948C188C01CE
:1027C0002196892B89F30E941019C801DF91CF91BE
:1027D0001F910F91FF90EF9008950895E2E5F2E0C8
:1027E00080E092E0DF019C011D9221503040E1F732
:1027F000F0935904E09358048FEF9FEF90932202D7
:102800008093210208950E94ED1380931D0280FDA4
:1028100002C080E801C080E280931C020E9405187B
:102820006DE070E08BEE92E00E94C413892B11F0F2
:1028300080E0089580911D0263E070E081FD03C097
:1028400088EE92E002C085EE92E00E94C413892BCC
:1028500079F76DE070E088ED92E00E94C413892B57
:1028600039F70E94A71CDC01CB01805A9541AF4F7C
:10287000BF4F8093540490935504A0935604B09393
:1028800057040E94EE1381E08093200280931F0280
:1028900010921E02089520911C0236E0839FC00111
:1028A0001124629F800D911D1124811522E0920751
:1028B00014F080E090E08E5A9D4F909359048093DD
:1028C00058040895809120028823F9F00E94A71CE3
:1028D000DC01CB01805A9541AF4FBF4F8093540428
:1028E00090935504A0935604B093570480911F020F
:1028F00081110BC062E070E086ED92E00E94C4138B
:10290000892B19F481E080931F0280911F020895A2
:102910006F927F928F929F92AF92BF92CF92DF92EF
:10292000EF92FF920F931F93CF93DF93809120023A
:10293000882309F4DCC02091210230912202211564
:10294000310509F4D4C080911E028111D0C061E02C
:1029500070E0082F10E03B01082E02C0660C771CC7
:102960000A94E2F7A90146215721452B11F48F5F04
:10297000F0CF90911D02980165E0220F331F6A95F8
:10298000E1F790FD12C08295880F80768093230135
:10299000220F232F221F330B319520932601815EB6
:1029A000809324011092270112C045E036952795A7
:1029B0004A95E1F7220F220F220F20932301109254
:1029C0002601295F2093240183E08093270124E6D8
:1029D00030E047E050E061E271E088E70E94BC1817
:1029E000892B09F084C080911D0280FD23C0A801BD
:1029F00095E0440F551F9A95E1F74E5A5D4F04E656
:102A000010E020E230E060E488E70E94E318892BC0
:102A100009F06DC00E946214E301C095D0958091C9
:102A2000210290912202C823D923D0932202C0937D
:102A300021025DC080E2ECEFF1E0DF011D928A959A
:102A4000E9F785E0000F111F8A95E1F7A9E4B1E0ED
:102A500045E451E0992493942D91EA018991AE01C6
:102A6000B801680F711D6E5A7D4F30E024503E4F03
:102A7000F90197E07F01E21AF30AA92C01C0AA0C20
:102A8000EA94EAF77B01B12CE70189917E018A2162
:102A9000892E8B18D82DD770CD2E0D2E000CDD0869
:102AA000C82F01C0CC0FDA95EAF7D194C194D108B0
:102AB000D7E0CD22DD2401C08695CA94EAF78C2B9D
:102AC000D0808D298083B39488E0B812DDCF9150F7
:102AD00031969F3F79F6C1E0AD34BC0709F0BCCF19
:102AE00004E610E020E230E04CEF51E08CCFDF91C3
:102AF000CF911F910F91FF90EF90DF90CF90BF90FB
:102B0000AF909F908F907F906F900895809120025A
:102B100090911F02882389F0992369F062E070E0A8
:102B200084ED92E00E94C413892B19F080911F025A
:102B3000089510921F0290911F0281E08927089545
:102B400008950F931F9380912002882399F180911B
:102B50005204909153040E94B31CC29760F00E94EB
:102B60009B1C909353048093520460E080E00E9489
:102B70004B140E94A0150E94881480911F02882384
:102B8000C9F00E94A71C0091540410915504209193
:102B9000560430915704DC01CB01801B910BA20B32
:102BA000B30B8F3F9F4FAF4FBF4720F41F910F9143
:102BB0000C9486151F910F9108950F931F93CF9337
:102BC000DF93C42FD22FFC0182818823C9F0409368
:102BD00025020E949B1C909324028093230280E292
:102BE0008C0F883008F057C0C77081E001C0880F93
:102BF000CA95EAF7DF91CF911F910F910C94AE0324
:102C000080912502481330C08091230290912402C4
:102C10000E94B31C883C910538F510E21D0FCD17BA
:102C2000B9F080E28C0F883040F4C77081E001C0B9
:102C3000880FCA95EAF70E94B503183028F581E09D
:102C40009D2F977001C0880F9A95EAF70E94AE03F6
:102C5000802F0E94A5031830F0F4D77081E001C0E6
:102C6000880FDA95EAF70AC080E28C0F883098F472
:102C7000C77081E001C0880FCA95EAF7DF91CF9154
:102C80001F910F910C94B503802FDF91CF911F916D
:102C90000F910C94A503DF91CF911F910F9108958F
:102CA0000F939C01CB01243F4CE5340731F188F4AC
:102CB000293DFCE53F07D9F02A3D4CE5340779F181
:102CC000283D3C45A9F506E221EE41EE68ED7CE5A4
:102CD0002BC0263FFCE53F07E1F0A8F0273F3C452D
:102CE00039F507E225EE46EE67EF7CE51DC007E209
:102CF00025EE45EE69ED7CE517C006E221EE40EEDB
:102D000064EF7CE511C007E225EE44EE65EF7CE55B
:102D10000BC006E221EE42EE66EF7CE505C008E25C
:102D200021E045EE6AED7CE50E94DD1580E008C0FB
:102D3000FC018281882319F01092250201C081E0F4
:102D40000F910895CF93DF93EC01FB0182818823DB
:102D500009F426C1C430FDE5DF0760F4CB3F9CE5F4
:102D6000D90768F49E0122503C452431310508F012
:102D700018C105C0C236EDE5DE0709F012C10E9498
:102D80002B0C90933A0280933902C031FCE5DF07A7
:102D900009F4CAC008F041C0C8309CE5D90709F45D
:102DA000A4C0F0F4C430FCE5DF0709F48CC068F47B
:102DB000C2309CE5D90709F482C0C330DC4509F074
:102DC000E5C0809139028260DFC0C630FCE5DF07D4
:102DD00009F483C008F085C0809139028860D4C0AE
:102DE000CC309CE5D90709F490C068F4CA30FCE502
:102DF000DF0709F47EC008F084C00E94FD058091C1
:102E000039028068C1C0CE309CE5D90709F481C081
:102E100008F086C08091390294C0CD3FFCE5DF0701
:102E200009F47BC038F5C4319CE5D90709F49AC090
:102E300058F4C231FCE5DF0709F47AC008F07EC01F
:102E4000809139028F7BA0C0CB3F9CE5D907F1F17F
:102E500008F03FC0C531DC4509F098C080913902C7
:102E600082FB222720F991E0922790FB82F990FBC8
:102E700083F98AC0C1308DE5D80709F467C050F4E2
:102E800080913A02CF3FECE5DE07C1F108F05BC06C
:102E90008D7F65C0C3308DE5D80709F471C008F493
:102EA0006DC0C236DD4509F071C08091390284FBE6
:102EB000222720F991E0922790FB84F965C0809148
:102EC0003902816061C08091390216C080913A0256
:102ED00016C080913A02826042C0809139028061BE
:102EE00053C08091390280624FC080913902806462
:102EF0004BC0809139028860846046C082608160E6
:102F00002EC0809139028E7F3FC0809139028D7F23
:102F10003BC080913902877F37C080913A0214C04C
:102F2000809139028F7E30C0809139028F7D2CC014
:102F30000E94FD05809139028F7726C08091390269
:102F4000877F8B7F21C08D7F8E7F09C080913A0261
:102F5000982F909591708E7F892B90FB81F98093AB
:102F60003A0214C00E94FD058091390287FB222796
:102F700020F991E0922790FB87F906C081E001C01B
:102F800080E00E94C20C02C0809339028091390215
:102F900090913A020E943C0C0E94FD0580E001C025
:102FA00081E0DF91CF910895CF93DF9386319C45E7
:102FB00041F5EB010E94660B982F8A812091000158
:102FC00030910101882379F09A7A81E009F480E058
:102FD00080932602911102C069E201C065E3C90134
:102FE0000E94C71B0AC080912602811102C069E2BB
:102FF00001C065E3C9010E94C91B0E94AB0B80E0C0
:1030000001C081E0DF91CF9108951092B9008CE06A
:103010008093B80008959F92AF92BF92CF92DF92B3
:10302000EF92FF920F931F93CF93DF93B82EEB0194
:103030000E949B1C6C01C431D10558F0CF3F8FEF2B
:10304000D80759F0CE0164E170E00E9476237B013D
:1030500007C0EE24E394F12C03C025E0E22EF12C0E
:1030600084E8A82E94EA992E1092BC009092BC009D
:103070000E949B1C8C018091BC0087FD08C00E94AF
:103080009B1C801B910B8E159F05A8F32AC0809175
:10309000B900887F883041F08091B900887F803105
:1030A00019F00FEF1FEF1FC0B092BB00A092BC0041
:1030B0000E949B1C8C018091BC0087FD08C00E946F
:1030C0009B1C801B910B8E159F05A8F30AC0809155
:1030D000B900887F883111F0803419F700E010E0E2
:1030E0000EC00EEF1FEFCF3F8FEFD80709F4BCCF14
:1030F000C6010E94B31C8C179D0708F4B5CFC80108
:10310000DF91CF911F910F91FF90EF90DF90CF90C3
:10311000BF90AF909F9008950F931F93CF93DF932D
:10312000EB018093BB0084E88093BC000E949B1C51
:103130008C018091BC0087FD0EC0CF3F8FEFD80778
:10314000C1F30E949B1C801B910B8C179D0788F379
:103150008EEF9FEF0CC02091B900287F81E090E0B6
:10316000283211F480E090E0919581959109DF91EA
:10317000CF911F910F910895CF92DF92EF92FF921E
:103180000F931F93CF93DF936B018A017901B901EC
:103190000E940B18E6010C0D1D1DC017D10761F42C
:1031A00024E92093BC00DF91CF911F910F91FF90F4
:1031B000EF90DF90CF90089597FDF2CFB7018991FE
:1031C0000E948C18EACFCF92DF92EF92FF920F937A
:1031D0001F93CF93DF93C62F6A017901B8010E9434
:1031E0000B1897FD11C0B8018C2F0E948C18E601B6
:1031F000EC0CFD1CCE15DF0539F097FD05C0B801BC
:1032000089910E948C18F6CF24E92093BC00DF91AD
:10321000CF911F910F91FF90EF90DF90CF90089585
:1032200084E98093BC0008958EE14A9B02C08150DE
:10323000E1F74A9BFECF08955A9880E28A95F1F70C
:103240005A9A0895FC012AE02A95F1F728E090E0C7
:1032500080E031E040E14A95F1F7880F4A9B02C0D7
:103260008160932700C0000040E14A95F1F72150AA
:1032700089F720E12A95F1F729B100C0000030E17B
:103280003A95F1F722FB222720F992272081920F0D
:1032900090830895EF92FF920F931F93CF93DF9344
:1032A0001F92CDB7DEB719828C017C01E60EF11CAE
:1032B0000E151F0551F00E941419CE0101960E94AF
:1032C0002219F80181938F01F3CF81E09981911147
:1032D00080E00F90DF91CF911F910F91FF90EF90C1
:1032E0000895529A5A9A089552985A9AEA9AE9E693
:1032F000F0E080818F7C80830895615091E001C06F
:10330000990F6A95EAF720E031E0992361F0492F9F
:10331000482319F05A9A232701C05A9840E24A9547
:10332000F1F79695F2CF222311F05A9A01C05A98DC
:1033300080E28A95F1F75A980895FF920F931F93B0
:10334000CF93DF93EC018C01060F111DC017D1073D
:1033500041F0F9900E941C1968E08F2D0E947D19A0
:10336000F5CFDF91CF911F910F91FF9008951F929C
:103370000F920FB60F921124EF92FF920F931F93AB
:103380002F933F934F935F936F937F938F939F936D
:10339000AF93BF93EF93FF93CF93DF931F92CDB77C
:1033A000DEB719820E941419CE0101960E942219DB
:1033B000A82FA695A695A6959A2F969595702A2F33
:1033C0002570920F292F237096959695920F8770EE
:1033D00089137CC08981811179C0A43008F076C03E
:1033E00080E18A95F1F75A9A529AB2E0BA95F1F7CC
:1033F00000C05A98EA2EF12CEAE0AE9FD0011124C9
:10340000AD5FBE4F1896ED91FC9119973097B1F0D2
:10341000609143017091440116962D913C9117974C
:10342000260F371F13968D919C911497680F791F63
:1034300015964C91159712968C9109958AE08E9D60
:10344000F0018F9DF00D1124ED5FFE4F6581662325
:1034500051F0809143019091440126813781820F80
:10346000931F0E949D190E941C19F0E1FA95F1F733
:103470005A9852985A9A80E18A95F1F78AE08E9D7F
:1034800080018F9D100D11240D5F1E4FD8011296E3
:103490006C911297662399F08091430190914401B9
:1034A00013962D913C911497820F931F0E944A19F5
:1034B000D801ED91FC91811105C082E004C0D801D2
:1034C000ED91FC9188E080830E9414190F90DF91A8
:1034D000CF91FF91EF91BF91AF919F918F917F918C
:1034E0006F915F914F913F912F911F910F91FF909D
:1034F000EF900F900FBE0F901F9018950F931F9392
:10350000CF93DF93843091050CF0A9C02AE0289F67
:10351000F001299FF00D1124ED5FFE4F20813181D4
:10352000232B09F49CC0EC01F894529A5A9885E038
:103530008A95F1F700008C2F869585709C2F9570E9
:10354000890F982F9370869586958E0123E0000F42
:10355000111F2A95E1F7890F082B0E941C19A4E07E
:10356000AA95F1F700C068E0802F0E947D19B0E1B4
:10357000BA95F1F752985A9A4A9902C000C0FCCF06
:1035800087E090E04A9B17C0019799F4529A5A9AA3
:103590008AE08C9FF0018D9FF00D1124ED5FFE4FAE
:1035A0000190F081E02D81E08083789481E090E0CB
:1035B00058C000C0E7CF8AE08C9F80018D9F100D1E
:1035C00011240D5F1E4FF80165816623B9F08091CB
:1035D00043019091440126813781820F931F0E94FD
:1035E0004A1981110BC0529A5A9AD801ED91FC9157
:1035F00082E08083789482E090E033C00E941419C6
:10360000B0E2BA95F1F75A98529AE0E1EA95F1F7EB
:103610008AE08C9FF0018D9FF00D1124ED5FFE4F2D
:103620006281662351F0809143019091440123818E
:103630003481820F931F0E949D190E941C198AE0F9
:103640008C9FF0018D9FF00D1124ED5FFE4F0190D6
:10365000F081E02D1082789480E090E002C084E058
:1036600090E0DF91CF911F910F91089590932D02DB
:1036700080932C0208950E946F11811103C08091E4
:1036800027020895E0912C02F0912D02309721F04D
:103690000190F081E02D099480E00895E0912C02E2
:1036A000F0912D02309721F00280F381E02D0994F2
:1036B000089520912A0230912B022817390771F0C2
:1036C00090932B0280932A02E0912C02F0912D021C
:1036D000309721F00680F781E02D0994089520911C
:1036E0002802309129022817390771F09093290296
:1036F00080932802E0912C02F0912D02309721F066
:103700000084F185E02D09940895FC01329697E03C
:1037100080E0915029F021912223D9F38F5FF9CFD6
:103720000895662349F0FC013296089621916217AC
:1037300029F0E817F907D1F780E0089581E00895AE
:103740009C01FC0132969FEF80E04191461789F081
:103750009F3F19F4411101C0982F8F5F8630A9F760
:103760009F3F39F0F901E90FF11D97FDFA9562834A
:10377000089508959C012A5F3F4FFC014281461342
:1037800001C01282019682179307B9F708950C942D
:10379000A01B0C94BA1B029626E0FC0111922A95FC
:1037A000E9F7089510925A0410925B0410925C0499
:1037B00010925D040895CF92DF92EF92FF926B0119
:1037C0007C010E946F1181110EC00E94A71CC61AB5
:1037D000D70AE80AF90AC0925A04D0925B04E09230
:1037E0005C04F0925D04FF90EF90DF90CF9008951D
:1037F0000F931F930E946F11882321F01F910F9147
:103800000C94A71C0E94A71C00915A0410915B0401
:1038100020915C0430915D04600F711F821F931F23
:103820001F910F910895089508950C94141C0C9401
:10383000141CCF930E94171C0E94E4100E94151CB8
:10384000C0E08C2F0E94AE0F811104C0CF5FCA3040
:10385000C1F701C081E0CF9108950C94141C0C9421
:103860002D1C80916604843049F10E942F1C80E059
:103870000E94D60210922E0220E488E190E00FB65A
:10388000F894A895809360000FBE2093600083B7E2
:10389000817F846083BF83B7816083BF789488957C
:1038A00083B78E7F83BF0FB6F894A8958091600090
:1038B000886180936000109260000FBE08950C94A0
:1038C000141C0E94FD050E943B1B0E94D6020C9412
:1038D0005F1C1F920F920FB60F9211248F939F932C
:1038E000AF93BF9380912E02811113C080915E042B
:1038F00090915F04A0916004B09161044196A11D74
:10390000B11D80935E0490935F04A0936004B09314
:103910006104BF91AF919F918F910F900FBE0F9057
:103920001F90189582E084BD93E095BD9AEF97BDF6
:1039300080936E0008952FB7F89480915E04909163
:103940005F04A0916004B09161042FBF08952FB768
:10395000F89460915E0470915F048091600490918E
:1039600061042FBF08959C014FB7F89480915E04C5
:1039700090915F04A0916004B09161044FBF821BDD
:10398000930B0895CF92DF92EF92FF922FB7F894A6
:10399000C0905E04D0905F04E0906004F0906104F9
:1039A0002FBFA7019601261B370B480B590BCA01E5
:1039B000B901FF90EF90DF90CF90089578941F9217
:1039C0000F920FB60F9211248F939F93AF93BF93D3
:1039D00080915E0490915F04A0916004B0916104B5
:1039E0000196A11DB11D80935E0490935F04A09386
:1039F0006004B0936104BF91AF919F918F910F903C
:103A00000FBE0F901F90189587E797E790930108D6
:103A1000809300089AE088E10FB6F894A895809307
:103A200060000FBE90936000FFCF90934F01809392
:103A30004E0108958091370208950895CF93DF9342
:103A400021E02093E9002FEF3091E800215035FD6F
:103A500006C035ED3A95F1F700002111F5CF209120
:103A6000E80025FF14C0EC0140E050E068E070E0A1
:103A70000E94C61E8091E8008E778093E80088E05F
:103A8000FE01AFE2B2E001900D928A95E1F7DF917D
:103A9000CF9108950895089580916504811109C01A
:103AA0000E9457200E94B4208091E200846080939D
:103AB000E200089510926504089508950895089508
:103AC00042E061EC81E00C94D01F80916804833067
:103AD00009F460C030F4813071F0823009F499C08B
:103AE00008958A3009F485C08B3009F46BC08930A1
:103AF00009F0A7C020C080916704813A09F0A1C0F5
:103B00008091E800877F8093E80080916B0490911A
:103B10006C04892B21F468E08FE292E003C060E03E
:103B200080E090E070E00E94111F8091E8008B77A8
:103B30008093E800089580916704813209F081C084
:103B400080916B0490916C04892B09F07AC080916C
:103B5000E800877F8093E8008091E80082FD05C03F
:103B6000809166048111F8CF6CC02091F3008091A0
:103B7000F20090E0922B029729F48091F1008B7F64
:103B8000813021F48091F100809337028091E80028
:103B90008B7753C080916704813A09F052C08091BD
:103BA0006B0490916C04892B09F04BC08091E80064
:103BB000877F8093E8008091E80080FFFCCF8091B0
:103BC000320136C0809167048132D9F580916B044F
:103BD00090916C04892BA9F58091E800877F8093F0
:103BE000E8000E94052080916904809332010C94C2
:103BF000FD0580916704813221F58091E800877F7F
:103C00008093E8000E94052080916A048093380226
:103C1000089580916704813AA1F48091E800877F3C
:103C20008093E8008091E80080FFFCCF809138020B
:103C30008093F1008091E8008E778093E8000C94E7
:103C40000520089584B7877F84BF0FB6F894A895A0
:103C500080916000886180936000109260000FBEC8
:103C600090E080E80FB6F894809361009093610033
:103C70000FBE0C94F00C0E9457200E94B420E2EE7C
:103C8000F0E080818460808378940E9449230E94C0
:103C9000FE0C88E291E00C94361B8091660485301E
:103CA000A9F480916604853079F40E94311C8091DA
:103CB00064048823B1F30E94191C882391F30E94A5
:103CC000B01E0E94FD05EDCF0E94611C0C940B0DEF
:103CD0000C946A1E292F332723303105C1F058F484
:103CE0002130310579F02230310591F582E290E002
:103CF0002EE133E031C021323105E1F022323105CD
:103D000001F126C082E190E020E433E025C099274C
:103D10008130910549F028F00297D1F4E8EFF2E004
:103D200005C0EAE1F3E002C0E8E0F3E0849190E04E
:103D30009F0112C0672B61F489E090E020E333E03B
:103D40000BC0672B29F480E490E022E533E004C047
:103D500080E090E020E030E0FA0131832083089594
:103D600080E189BD82E189BD09B400FEFDCF80916B
:103D7000D8008F7D8093D8008091E000826080938E
:103D8000E0008091E00081FDFCCF0895CF92DF92AA
:103D9000EF92FF920F931F93CF93DF93EC018B0170
:103DA0007A010E942420811133C0E114F10439F01A
:103DB000F70180819181081B190BC80FD91FC12CF5
:103DC000D12C0115110519F18091E80085FD16C06F
:103DD0008091E8008E778093E800E114F10449F0C7
:103DE000F70180819181C80ED91ED182C08285E001
:103DF0000FC00E942420882321F30AC08991809358
:103E0000F10001501109FFEFCF1ADF0ADACF80E08D
:103E1000DF91CF911F910F91FF90EF90DF90CF90A6
:103E2000089520916D0430916E042617370748F0ED
:103E30006115710539F42091E8002E772093E80090
:103E400001C0B901FC0120E06115710579F1809193
:103E500066048823F1F18530F1F18091E80083FD5B
:103E60003CC08091E80082FD2EC08091E80080FF78
:103E7000EBCF2091F3008091F20090E0922B61153E
:103E8000710551F08830910538F421912093F100AB
:103E9000615071090196F3CF21E0089709F020E005
:103EA0008091E8008E778093E800CECF2111CFCFAC
:103EB0000AC080916604882361F0853061F08091AA
:103EC000E80083FD0AC08091E80082FFF2CF80E025
:103ED000089582E0089583E0089581E00895209197
:103EE0006D0430916E042617370748F0611571058F
:103EF00039F42091E8002E772093E80001C0B90141
:103F0000FC0120E06115710591F180916604882320
:103F100009F440C0853009F43FC08091E80083FD7A
:103F20003DC08091E80082FD2FC08091E80080FFB5
:103F3000E9CF2091F3008091F20090E0922B61157F
:103F4000710559F08830910540F424912093F100D7
:103F50003196615071090196F2CF21E0089709F07E
:103F600020E08091E8008E778093E800CBCF21118C
:103F7000CCCF0AC080916604882361F0853061F05F
:103F80008091E80083FD0AC08091E80082FFF2CFB3
:103F900080E0089582E0089583E0089581E0089527
:103FA000982F973068F59093E900981739F0709141
:103FB000EC002091ED005091F00003C0242F762FEB
:103FC00050E021FD02C09F5FECCF3091EB003E7FBF
:103FD0003093EB003091ED003D7F3093ED00309158
:103FE000EB0031603093EB007093EC002093ED0018
:103FF0005093F0002091EE0027FDE5CF80E008957A
:104000008F708093E90081E008958091670487FFB5
:1040100011C08091E80082FD05C080916604811185
:10402000F8CF11C08091E8008B770BC080916604B7
:10403000882349F08091E80080FFF8CF8091E80064
:104040008E778093E80008952091E4003091E50098
:1040500095E64091EC00842F817040FF23C0809151
:10406000E80080FD1DC080916604882399F08530AA
:1040700099F08091EB0085FD11C04091E4005091D2
:10408000E5002417350729F3915011F09A01E1CF8B
:1040900084E0089582E0089583E0089581E0089522
:1040A00080E008954091E80042FFDDCF08950E942E
:1040B000C5200E94CD20E0EEF0E080818160808309
:1040C000E8EDF0E080818F77808319BCA7EDB0E048
:1040D0008C918E7F8C9380818F7E8083109265047B
:1040E00008950F931F93CF93DF930E94C5200E94E2
:1040F000CD20C8EDD0E088818F7788838881806863
:10410000888388818F7D888319BC10926604109201
:104110006204109264041092630400EE10E0F8014F
:1041200080818B7F808388818160888342E060E02A
:1041300080E00E94D01FE1EEF0E080818E7F8083DE
:10414000E2EEF0E0808181608083808188608083FE
:10415000F80180818E7F8083888180618883DF91F0
:10416000CF911F910F910895E8EDF0E080818F7E4F
:104170008083E7EDF0E080818160808384E082BF0E
:1041800081E0809365040C947120E8EDF0E080817B
:104190008E7F80831092E20008951092DA001092D0
:1041A000E10008951F920F920FB60F9211242F93E2
:1041B0003F934F935F936F937F938F939F93AF93AF
:1041C000BF93EF93FF938091E10082FF0BC080913A
:1041D000E20082FF07C08091E1008B7F8093E100C5
:1041E0000E9448238091DA0080FF1FC08091D80090
:1041F00080FF1BC08091DA008E7F8093DA0080916F
:10420000D90080FF0DC080E189BD82E189BD09B47C
:1042100000FEFDCF81E0809366040E944C1D05C026
:1042200019BC109266040E945A1D8091E10080FF23
:1042300019C08091E20080FF15C08091E2008E7F5E
:104240008093E2008091E20080618093E20080919F
:10425000D80080628093D80019BC85E08093660402
:104260000E945E1D8091E10084FF30C08091E200D9
:1042700084FF2CC080E189BD82E189BD09B400FEC4
:10428000FDCF8091D8008F7D8093D8008091E10090
:104290008F7E8093E1008091E2008F7E8093E20028
:1042A0008091E20081608093E20080916204882323
:1042B00011F084E007C08091E30087FD02C081E037
:1042C00001C083E0809366040E945F1D8091E1003D
:1042D00083FF29C08091E20083FF25C08091E10027
:1042E000877F8093E10082E08093660410926204ED
:1042F0008091E1008E7F8093E1008091E2008E7FCB
:104300008093E2008091E20080618093E20042E0CD
:1043100060E080E00E94D01F8091F0008860809370
:10432000F0000E945D1DFF91EF91BF91AF919F91B1
:104330008F917F916F915F914F913F912F910F904E
:104340000FBE0F901F9018951F920F920FB60F92ED
:1043500011242F933F934F935F936F937F938F938A
:104360009F93AF93BF93CF93DF93EF93FF93C0914E
:10437000E900CF708091EC00D82FD17080FDD0E89B
:104380001092E9008091F000877F8093F00078948C
:104390000E94E8211092E9008091F00088608093EB
:1043A000F000CD2BCF70C093E900FF91EF91DF912A
:1043B000CF91BF91AF919F918F917F916F915F91BD
:1043C0004F913F912F910F900FBE0F901F90189516
:1043D0001F93CF93DF93CDB7DEB7AA970FB6F894AC
:1043E000DEBF0FBECDBFE7E6F4E08091F100819320
:1043F00024E0EF36F207C9F70E94651D8091E800BE
:1044000083FF2EC18091670490916804492F50E08A
:104410004A30510508F024C1FA01E059FF4F0C94CD
:104420008A23803821F0823809F01AC108C08091AF
:10443000630490916404992389F082600FC0809195
:104440006B048F70873008F00BC18093E900809176
:10445000EB0085FB882780F91092E9009091E80035
:10446000977F9093E8008093F1001092F100D1C003
:10447000282F2D7F09F0F4C0882319F0823061F0D5
:10448000EFC080916904813009F0EAC0933009F0EF
:1044900080E0809364042EC08091690481112AC059
:1044A00080916B048F702FEF280F263008F0D8C052
:1044B0008093E9002091EB0020FF1CC0933021F491
:1044C0008091EB00806214C09091EB00906190931A
:1044D000EB0021E030E0A90102C0440F551F8A958E
:1044E000E2F74093EA001092EA008091EB008860C6
:1044F0008093EB001092E9008091E800877F809321
:10450000E8000E940520ACC08111AAC01091690486
:104510001F778091E3008078812B8093E300809166
:10452000E800877F8093E8000E9405208091E800E2
:1045300080FFFCCF8091E30080688093E30011113D
:1045400002C082E001C083E08093660489C0805885
:10455000823008F085C08091690490916A048C3D96
:1045600053E0950779F583E08A838AE289834FB720
:10457000F894DE01139620E03EE051E2E32FF0E0F4
:1045800050935700E49120FF03C0E295EF703F5F26
:10459000EF708E2F90E0EA3010F0C79601C0C09601
:1045A0008D939D932F5F243149F74FBF8091E80091
:1045B000877F8093E8006AE270E0CE0101960E9456
:1045C000111F16C060916B0470916C04AE014F5FB7
:1045D0005F4F0E94681EBC01892B09F441C0909175
:1045E000E800977F9093E80089819A810E946F1F6D
:1045F0008091E8008B778093E80032C0803881F5A5
:104600008091E800877F8093E80080916204809326
:10461000F1008091E8008E7772CF811121C08091E6
:10462000690490916A0499270297D4F48091E80074
:10463000877F8093E80080916904809362040E94E0
:10464000052080916204811106C08091E30087FDFE
:1046500002C081E001C084E0809366040E94601D76
:104660008091E80083FF0AC08091E800877F8093F3
:10467000E8008091EB0080628093EB00AA960FB671
:10468000F894DEBF0FBECDBFDF91CF911F9108958B
:104690000895CF93809166048823A1F0C091E9002A
:1046A000CF709091EC00892F817090FD80E8C82B2D
:1046B0001092E9008091E80083FD0E94E821CF700C
:1046C000C093E900CF9108950E945720109266048C
:1046D0000895E8EDF0E08081806180838AE18A9529
:1046E000F1F700C08091D90081700895AA1BBB1B0F
:1046F00051E107C0AA1FBB1FA617B70710F0A61BE2
:10470000B70B881F991F5A95A9F780959095BC0102
:10471000CD010895EE0FFF1F0590F491E02D09944F
:10472000FB01DC0104C08D910190801921F44150FE
:104730005040C8F7881B990B0895FB01DC0102C0AB
:1047400001900D9241505040D8F70895F999FECF4D
:1047500092BD81BDF89A992780B50895A8E1B0E08F
:1047600042E050E00C94DA23262FF999FECF92BD57
:1047700081BDF89A019700B4021639F01FBA20BD26
:104780000FB6F894FA9AF99A0FBE08950396272F58
:104790000E94B5230E94B423252F0E94B523242F05
:1047A0000C94B5230196272F0E94B5230C94B423B3
:1047B000DC01CB01FC01F999FECF06C0F2BDE1BDE1
:1047C000F89A319600B40D9241505040B8F70895D0
:0447D000F894FFCF8B
:1047D400BB01015102000000010000000051020071
:1047E4000000050100000051020406000000000062
:1047F400000021007F2200031A1D1E1D4A1D4B1DAF
:104804001D1D01F6F7313332366697C63435000084
:0E481400000000E10100081018181008000054
:00000001FF
